{
  "address": "0xc4191ABCe671161d2205346987C3E17E436de70F",
  "abi": [
    {
      "inputs": [
        {
          "internalType": "address",
          "name": "_owner",
          "type": "address"
        }
      ],
      "stateMutability": "nonpayable",
      "type": "constructor"
    },
    {
      "anonymous": false,
      "inputs": [
        {
          "indexed": true,
          "internalType": "uint256",
          "name": "actionId",
          "type": "uint256"
        },
        {
          "indexed": true,
          "internalType": "address",
          "name": "creator",
          "type": "address"
        },
        {
          "indexed": false,
          "internalType": "string",
          "name": "actionType",
          "type": "string"
        },
        {
          "indexed": false,
          "internalType": "uint256",
          "name": "timestamp",
          "type": "uint256"
        }
      ],
      "name": "ActionCreated",
      "type": "event"
    },
    {
      "anonymous": false,
      "inputs": [
        {
          "indexed": true,
          "internalType": "uint256",
          "name": "actionId",
          "type": "uint256"
        },
        {
          "indexed": false,
          "internalType": "string",
          "name": "result",
          "type": "string"
        },
        {
          "indexed": false,
          "internalType": "uint256",
          "name": "timestamp",
          "type": "uint256"
        }
      ],
      "name": "ActionExecuted",
      "type": "event"
    },
    {
      "anonymous": false,
      "inputs": [
        {
          "indexed": true,
          "internalType": "address",
          "name": "caller",
          "type": "address"
        },
        {
          "indexed": false,
          "internalType": "string",
          "name": "operation",
          "type": "string"
        },
        {
          "indexed": false,
          "internalType": "bool",
          "name": "success",
          "type": "bool"
        }
      ],
      "name": "CoreWriterCall",
      "type": "event"
    },
    {
      "inputs": [],
      "name": "CORE_WRITER",
      "outputs": [
        {
          "internalType": "address",
          "name": "",
          "type": "address"
        }
      ],
      "stateMutability": "view",
      "type": "function"
    },
    {
      "inputs": [],
      "name": "actionCounter",
      "outputs": [
        {
          "internalType": "uint256",
          "name": "",
          "type": "uint256"
        }
      ],
      "stateMutability": "view",
      "type": "function"
    },
    {
      "inputs": [
        {
          "internalType": "uint256",
          "name": "",
          "type": "uint256"
        }
      ],
      "name": "actions",
      "outputs": [
        {
          "internalType": "uint256",
          "name": "id",
          "type": "uint256"
        },
        {
          "internalType": "address",
          "name": "creator",
          "type": "address"
        },
        {
          "internalType": "string",
          "name": "actionType",
          "type": "string"
        },
        {
          "internalType": "bytes",
          "name": "data",
          "type": "bytes"
        },
        {
          "internalType": "uint256",
          "name": "timestamp",
          "type": "uint256"
        },
        {
          "internalType": "bool",
          "name": "executed",
          "type": "bool"
        },
        {
          "internalType": "string",
          "name": "result",
          "type": "string"
        }
      ],
      "stateMutability": "view",
      "type": "function"
    },
    {
      "inputs": [
        {
          "internalType": "uint256",
          "name": "_actionId",
          "type": "uint256"
        }
      ],
      "name": "getAction",
      "outputs": [
        {
          "components": [
            {
              "internalType": "uint256",
              "name": "id",
              "type": "uint256"
            },
            {
              "internalType": "address",
              "name": "creator",
              "type": "address"
            },
            {
              "internalType": "string",
              "name": "actionType",
              "type": "string"
            },
            {
              "internalType": "bytes",
              "name": "data",
              "type": "bytes"
            },
            {
              "internalType": "uint256",
              "name": "timestamp",
              "type": "uint256"
            },
            {
              "internalType": "bool",
              "name": "executed",
              "type": "bool"
            },
            {
              "internalType": "string",
              "name": "result",
              "type": "string"
            }
          ],
          "internalType": "struct YourContract.Action",
          "name": "",
          "type": "tuple"
        }
      ],
      "stateMutability": "view",
      "type": "function"
    },
    {
      "inputs": [
        {
          "internalType": "address",
          "name": "_user",
          "type": "address"
        }
      ],
      "name": "getUserActions",
      "outputs": [
        {
          "internalType": "uint256[]",
          "name": "",
          "type": "uint256[]"
        }
      ],
      "stateMutability": "view",
      "type": "function"
    },
    {
      "inputs": [],
      "name": "owner",
      "outputs": [
        {
          "internalType": "address",
          "name": "",
          "type": "address"
        }
      ],
      "stateMutability": "view",
      "type": "function"
    },
    {
      "inputs": [
        {
          "internalType": "address",
          "name": "apiWallet",
          "type": "address"
        },
        {
          "internalType": "string",
          "name": "apiWalletName",
          "type": "string"
        }
      ],
      "name": "sendAddApiWallet",
      "outputs": [],
      "stateMutability": "nonpayable",
      "type": "function"
    },
    {
      "inputs": [
        {
          "internalType": "uint64",
          "name": "token",
          "type": "uint64"
        },
        {
          "internalType": "uint8",
          "name": "variant",
          "type": "uint8"
        },
        {
          "internalType": "uint64",
          "name": "createNonce",
          "type": "uint64"
        }
      ],
      "name": "sendFinalizeEvmContract",
      "outputs": [],
      "stateMutability": "nonpayable",
      "type": "function"
    },
    {
      "inputs": [
        {
          "internalType": "uint32",
          "name": "asset",
          "type": "uint32"
        },
        {
          "internalType": "bool",
          "name": "isBuy",
          "type": "bool"
        },
        {
          "internalType": "uint64",
          "name": "limitPx",
          "type": "uint64"
        },
        {
          "internalType": "uint64",
          "name": "sz",
          "type": "uint64"
        },
        {
          "internalType": "bool",
          "name": "reduceOnly",
          "type": "bool"
        },
        {
          "internalType": "uint8",
          "name": "tif",
          "type": "uint8"
        },
        {
          "internalType": "uint128",
          "name": "cloid",
          "type": "uint128"
        }
      ],
      "name": "sendLimitOrder",
      "outputs": [],
      "stateMutability": "nonpayable",
      "type": "function"
    },
    {
      "inputs": [
        {
          "internalType": "address",
          "name": "destination",
          "type": "address"
        },
        {
          "internalType": "uint64",
          "name": "token",
          "type": "uint64"
        },
        {
          "internalType": "uint64",
          "name": "amount",
          "type": "uint64"
        }
      ],
      "name": "sendSpotSend",
      "outputs": [],
      "stateMutability": "nonpayable",
      "type": "function"
    },
    {
      "inputs": [
        {
          "internalType": "uint64",
          "name": "amount",
          "type": "uint64"
        }
      ],
      "name": "sendStakingDeposit",
      "outputs": [],
      "stateMutability": "nonpayable",
      "type": "function"
    },
    {
      "inputs": [
        {
          "internalType": "uint64",
          "name": "amount",
          "type": "uint64"
        }
      ],
      "name": "sendStakingWithdraw",
      "outputs": [],
      "stateMutability": "nonpayable",
      "type": "function"
    },
    {
      "inputs": [
        {
          "internalType": "address",
          "name": "validator",
          "type": "address"
        },
        {
          "internalType": "uint64",
          "name": "amount",
          "type": "uint64"
        },
        {
          "internalType": "bool",
          "name": "isUndelegate",
          "type": "bool"
        }
      ],
      "name": "sendTokenDelegate",
      "outputs": [],
      "stateMutability": "nonpayable",
      "type": "function"
    },
    {
      "inputs": [
        {
          "internalType": "uint64",
          "name": "ntl",
          "type": "uint64"
        },
        {
          "internalType": "bool",
          "name": "toPerp",
          "type": "bool"
        }
      ],
      "name": "sendUsdClassTransfer",
      "outputs": [],
      "stateMutability": "nonpayable",
      "type": "function"
    },
    {
      "inputs": [
        {
          "internalType": "address",
          "name": "vault",
          "type": "address"
        },
        {
          "internalType": "bool",
          "name": "isDeposit",
          "type": "bool"
        },
        {
          "internalType": "uint64",
          "name": "usd",
          "type": "uint64"
        }
      ],
      "name": "sendVaultTransfer",
      "outputs": [],
      "stateMutability": "nonpayable",
      "type": "function"
    },
    {
      "inputs": [],
      "name": "testLimitOrder",
      "outputs": [],
      "stateMutability": "nonpayable",
      "type": "function"
    },
    {
      "inputs": [],
      "name": "testTokenDelegate",
      "outputs": [],
      "stateMutability": "nonpayable",
      "type": "function"
    },
    {
      "inputs": [],
      "name": "testVaultTransfer",
      "outputs": [],
      "stateMutability": "nonpayable",
      "type": "function"
    },
    {
      "inputs": [
        {
          "internalType": "address",
          "name": "",
          "type": "address"
        },
        {
          "internalType": "uint256",
          "name": "",
          "type": "uint256"
        }
      ],
      "name": "userActions",
      "outputs": [
        {
          "internalType": "uint256",
          "name": "",
          "type": "uint256"
        }
      ],
      "stateMutability": "view",
      "type": "function"
    },
    {
      "inputs": [],
      "name": "withdraw",
      "outputs": [],
      "stateMutability": "nonpayable",
      "type": "function"
    },
    {
      "stateMutability": "payable",
      "type": "receive"
    }
  ],
  "transactionHash": "0xf029c46d9472d8c74fc9b5d8aeed8b89a86cba044dc44c3bf9d1664ecf61fe07",
  "args": [
    "0x54B1FF4C0229A3fa33a04e05F5731acD66495Db1"
  ],
  "numDeployments": 2,
  "solcInputHash": "8d6b5fe6302dcb413cec2227462cf912",
  "bytecode": "0x60a0604052600080553480156200001557600080fd5b5060405162002221380380620022218339810160408190526200003891620000fd565b6001600160a01b038116608052604080516060810190915260238082526200006b9190620021fe60208301398262000072565b5062000191565b620000bf82826040516024016200008b9291906200012f565b60408051601f198184030181529190526020810180516001600160e01b0390811663319af33360e01b17909152620000c316565b5050565b620000d981620000dc60201b62000fe81760201c565b50565b60006a636f6e736f6c652e6c6f679050600080835160208501845afa505050565b6000602082840312156200011057600080fd5b81516001600160a01b03811681146200012857600080fd5b9392505050565b604081526000835180604084015260005b818110156200015f576020818701810151606086840101520162000140565b50600060608285018101919091526001600160a01b03949094166020840152601f01601f191690910190910192915050565b608051612043620001bb60003960008181610285015281816105a3015261063101526120436000f3fe6080604052600436106101235760003560e01c8063a000ffc1116100a0578063db30aa5311610064578063db30aa5314610364578063dee9fa4d14610384578063f782470a14610399578063fae252f0146103b9578063fdbd98b0146103d957600080fd5b8063a000ffc1146102a7578063b3f6c456146102d5578063b6e76873146102ea578063b9710f1614610317578063d5f970881461033757600080fd5b806351997130116100e757806351997130146101eb57806356e20bec146102005780635d54c88c1461022057806383240f83146102405780638da5cb5b1461027357600080fd5b8063098cf0651461012f578063258f0dcc1461015157806327c37b3d146101715780632d9d5db6146101b65780633ccfd60b146101d657600080fd5b3661012a57005b600080fd5b34801561013b57600080fd5b5061014f61014a366004611888565b6103ef565b005b34801561015d57600080fd5b5061014f61016c3660046118d1565b610468565b34801561017d57600080fd5b5061019973333333333333333333333333333333333333333381565b6040516001600160a01b0390911681526020015b60405180910390f35b3480156101c257600080fd5b5061014f6101d1366004611914565b61050f565b3480156101e257600080fd5b5061014f610598565b3480156101f757600080fd5b5061014f6106e9565b34801561020c57600080fd5b5061014f61021b366004611888565b610708565b34801561022c57600080fd5b5061014f61023b366004611958565b61076c565b34801561024c57600080fd5b5061026061025b366004611984565b610804565b6040516101ad97969594939291906119ed565b34801561027f57600080fd5b506101997f000000000000000000000000000000000000000000000000000000000000000081565b3480156102b357600080fd5b506102c76102c2366004611a59565b6109ea565b6040519081526020016101ad565b3480156102e157600080fd5b5061014f610a1b565b3480156102f657600080fd5b5061030a610305366004611984565b610a2b565b6040516101ad9190611a83565b34801561032357600080fd5b5061014f610332366004611b2d565b610ccd565b34801561034357600080fd5b50610357610352366004611bee565b610d36565b6040516101ad9190611c09565b34801561037057600080fd5b5061014f61037f366004611c4d565b610da2565b34801561039057600080fd5b5061014f610e43565b3480156103a557600080fd5b5061014f6103b4366004611c87565b610e6b565b3480156103c557600080fd5b5061014f6103d4366004611d28565b610f59565b3480156103e557600080fd5b506102c760005481565b604080516001600160401b0383166020820152600091016040516020818303038152906040529050610422600382611009565b6104526040518060400160405280600f81526020016e14dd185ada5b99c811195c1bdcda5d608a1b815250611303565b610464826001600160401b0316611346565b5050565b604080516001600160a01b0385166020820152831515918101919091526001600160401b038216606082015260009060800160405160208183030381529060405290506104b6600182611009565b6104e56040518060400160405280600e81526020016d2b30bab63a102a3930b739b332b960911b815250611303565b6104ee8461138b565b6104f7836113d3565b610509826001600160401b0316611346565b50505050565b604080516001600160401b0384166020820152821515818301528151808203830181526060909101909152610545600682611009565b610578604051806040016040528060128152602001712aa9a21021b630b9b9902a3930b739b332b960711b815250611303565b61058a836001600160401b0316611346565b610593826113d3565b505050565b336001600160a01b037f0000000000000000000000000000000000000000000000000000000000000000161461062d5760405162461bcd60e51b815260206004820152602f60248201527f536f6c6f20656c2070726f706965746172696f20707565646520656a6563757460448201526e30b91032b9ba3090333ab731b4b7b760891b60648201526084015b60405180910390fd5b60007f00000000000000000000000000000000000000000000000000000000000000006001600160a01b03164760405160006040518083038185875af1925050503d806000811461069a576040519150601f19603f3d011682016040523d82523d6000602084013e61069f565b606091505b50509050806106e65760405162461bcd60e51b815260206004820152601360248201527208cc2d8d8de40c2d840cadcecd2c2e4408aa89606b1b6044820152606401610624565b50565b61070660018064174876e8006402540be400600060026000610e6b565b565b604080516001600160401b038316602082015260009101604051602081830303815290604052905061073b600482611009565b6104526040518060400160405280601081526020016f5374616b696e6720576974686472617760801b815250611303565b604080516001600160401b03858116602083015260ff85168284015283166060808301919091528251808303909101815260809091019091526107b0600782611009565b6107e660405180604001604052806015815260200174119a5b985b1a5e99481155934810dbdb9d1c9858dd605a1b815250611303565b6107f8846001600160401b0316611346565b6104f78360ff16611346565b60016020819052600091825260409091208054918101546002820180546001600160a01b03909216929161083790611d54565b80601f016020809104026020016040519081016040528092919081815260200182805461086390611d54565b80156108b05780601f10610885576101008083540402835291602001916108b0565b820191906000526020600020905b81548152906001019060200180831161089357829003601f168201915b5050505050908060030180546108c590611d54565b80601f01602080910402602001604051908101604052809291908181526020018280546108f190611d54565b801561093e5780601f106109135761010080835404028352916020019161093e565b820191906000526020600020905b81548152906001019060200180831161092157829003601f168201915b50505050600483015460058401546006850180549495929460ff90921693509061096790611d54565b80601f016020809104026020016040519081016040528092919081815260200182805461099390611d54565b80156109e05780601f106109b5576101008083540402835291602001916109e0565b820191906000526020600020905b8154815290600101906020018083116109c357829003601f168201915b5050505050905087565b60026020528160005260406000208181548110610a0657600080fd5b90600052602060002001600091509150505481565b610706336001633b9aca00610468565b610a766040518060e001604052806000815260200160006001600160a01b03168152602001606081526020016060815260200160008152602001600015158152602001606081525090565b6000548210610aba5760405162461bcd60e51b815260206004820152601060248201526f416363696f6e206e6f2065786973746560801b6044820152606401610624565b600082815260016020818152604092839020835160e08101855281548152928101546001600160a01b0316918301919091526002810180549293919291840191610b0390611d54565b80601f0160208091040260200160405190810160405280929190818152602001828054610b2f90611d54565b8015610b7c5780601f10610b5157610100808354040283529160200191610b7c565b820191906000526020600020905b815481529060010190602001808311610b5f57829003601f168201915b50505050508152602001600382018054610b9590611d54565b80601f0160208091040260200160405190810160405280929190818152602001828054610bc190611d54565b8015610c0e5780601f10610be357610100808354040283529160200191610c0e565b820191906000526020600020905b815481529060010190602001808311610bf157829003601f168201915b505050918352505060048201546020820152600582015460ff1615156040820152600682018054606090920191610c4490611d54565b80601f0160208091040260200160405190810160405280929190818152602001828054610c7090611d54565b8015610cbd5780601f10610c9257610100808354040283529160200191610cbd565b820191906000526020600020905b815481529060010190602001808311610ca057829003601f168201915b5050505050815250509050919050565b60008282604051602001610ce2929190611d8e565b6040516020818303038152906040529050610cfe600882611009565b610d2d6040518060400160405280600e81526020016d105919081054124815d85b1b195d60921b815250611303565b6105938361138b565b6001600160a01b038116600090815260026020908152604091829020805483518184028101840190945280845260609392830182828015610d9657602002820191906000526020600020905b815481526020019060010190808311610d82575b50505050509050919050565b604080516001600160a01b03851660208201526001600160401b0384169181019190915281151560608201526000906080016040516020818303038152906040529050610df0600282611009565b610e1f6040518060400160405280600e81526020016d546f6b656e2044656c656761746560901b815250611303565b610e288461138b565b610e3a836001600160401b0316611346565b610509826113d3565b610706731234567890123456789012345678901234567890670de0b6b3a76400006000610da2565b6040805163ffffffff89166020820152871515918101919091526001600160401b0380871660608301528516608082015283151560a082015260ff831660c08201526001600160801b03821660e0820152600090610100016040516020818303038152906040529050610edf600082611009565b610f13604051806040016040528060138152602001724c696d6974204f7264657220656e766961646160681b815250611303565b610f228863ffffffff16611346565b610f2b876113d3565b610f3d866001600160401b0316611346565b610f4f856001600160401b0316611346565b5050505050505050565b604080516001600160a01b03851660208201526001600160401b03848116828401528316606080830191909152825180830390910181526080909101909152610fa3600582611009565b610fcd6040518060400160405280600981526020016814dc1bdd0814d95b9960ba1b815250611303565b610fd68461138b565b6104f7836001600160401b0316611346565b60006a636f6e736f6c652e6c6f679050600080835160208501845afa505050565b6000815160046110199190611dd0565b6001600160401b0381111561103057611030611b17565b6040519080825280601f01601f19166020018201604052801561105a576020820181803683370190505b509050600160f81b8160008151811061107557611075611de9565b60200101906001600160f81b031916908160001a905350600060f81b816001815181106110a4576110a4611de9565b60200101906001600160f81b031916908160001a905350600060f81b816002815181106110d3576110d3611de9565b60200101906001600160f81b031916908160001a9053508260088111156110fc576110fc611dff565b60f81b8160038151811061111257611112611de9565b60200101906001600160f81b031916908160001a90535060005b825181101561119b5782818151811061114757611147611de9565b01602001516001600160f81b03191682611162836004611dd0565b8151811061117257611172611de9565b60200101906001600160f81b031916908160001a9053508061119381611e15565b91505061112c565b5060007333333333333333333333333333333333333333336001600160a01b0316826040516111ca9190611e2e565b6000604051808303816000865af19150503d8060008114611207576040519150601f19603f3d011682016040523d82523d6000602084013e61120c565b606091505b50509050600061121b85611414565b9050611227818461169a565b811561129757336001600160a01b03167f10404c9e04c7f24ccf8ccd246f1f7f762bb26c541b01bfd66783cf0e9198d22f826001604051611269929190611e4a565b60405180910390a2611292604051806060016040528060268152602001611fe860269139611303565b6112fc565b336001600160a01b03167f10404c9e04c7f24ccf8ccd246f1f7f762bb26c541b01bfd66783cf0e9198d22f8260006040516112d3929190611e4a565b60405180910390a26112fc604051806060016040528060218152602001611fc760219139611303565b5050505050565b6106e6816040516024016113179190611e6e565b60408051601f198184030181529190526020810180516001600160e01b031663104c13eb60e21b17905261185b565b6106e68160405160240161135c91815260200190565b60408051601f198184030181529190526020810180516001600160e01b031663f82c50f160e01b17905261185b565b6040516001600160a01b03821660248201526106e69060440160408051601f198184030181529190526020810180516001600160e01b031663161765e160e11b17905261185b565b60405181151560248201526106e69060440160408051601f198184030181529190526020810180516001600160e01b03166332458eed60e01b17905261185b565b6060600082600881111561142a5761142a611dff565b0361145657505060408051808201909152600b81526a2624a6a4aa2fa7a92222a960a91b602082015290565b600182600881111561146a5761146a611dff565b0361149957505060408051808201909152600e81526d2b20aaa62a2faa2920a729a322a960911b602082015290565b60028260088111156114ad576114ad611dff565b036114dc57505060408051808201909152600e81526d544f4b454e5f44454c454741544560901b602082015290565b60038260088111156114f0576114f0611dff565b0361152057505060408051808201909152600f81526e14d51052d25391d7d1115413d4d255608a1b602082015290565b600482600881111561153457611534611dff565b0361156557505060408051808201909152601081526f5354414b494e475f574954484452415760801b602082015290565b600582600881111561157957611579611dff565b036115a357505060408051808201909152600981526814d413d517d4d1539160ba1b602082015290565b60068260088111156115b7576115b7611dff565b036115ea5750506040805180820190915260128152712aa9a22fa1a620a9a9afaa2920a729a322a960711b602082015290565b60078260088111156115fe576115fe611dff565b03611634575050604080518082019091526015815274119253905312569157d1559357d0d3d395149050d5605a1b602082015290565b600882600881111561164857611648611dff565b0361167757505060408051808201909152600e81526d10511117d0541257d5d05313115560921b602082015290565b50506040805180820190915260078152662aa725a727aba760c91b602082015290565b600080546040805160e08101825282815233602080830191825282840188815260608401889052426080850152600160a0850181905285518087018752601981527f436f726557726974657220616374696f6e20656e7669616461000000000000008185015260c0860152868852918290529390952082518155905194810180546001600160a01b0319166001600160a01b0390961695909517909455905191929091600282019061174c9082611ecf565b50606082015160038201906117619082611ecf565b506080820151600482015560a082015160058201805460ff191691151591909117905560c082015160068201906117989082611ecf565b5050336000908152600260209081526040822080546001810182559083529082200183905580549150806117cb83611e15565b9190505550336001600160a01b0316817fb14b71bd21b398ee3391cdc11f29d39c164d246656a90ecb28ca006822bd6cfc854260405161180c929190611f8e565b60405180910390a36118526040518060400160405280601e81526020017f4e7565766120616363696f6e20436f7265577269746572206372656164610000815250611303565b61059381611346565b6106e681610fe8565b610706611fb0565b80356001600160401b038116811461188357600080fd5b919050565b60006020828403121561189a57600080fd5b6118a38261186c565b9392505050565b80356001600160a01b038116811461188357600080fd5b8035801515811461188357600080fd5b6000806000606084860312156118e657600080fd5b6118ef846118aa565b92506118fd602085016118c1565b915061190b6040850161186c565b90509250925092565b6000806040838503121561192757600080fd5b6119308361186c565b915061193e602084016118c1565b90509250929050565b803560ff8116811461188357600080fd5b60008060006060848603121561196d57600080fd5b6119768461186c565b92506118fd60208501611947565b60006020828403121561199657600080fd5b5035919050565b60005b838110156119b85781810151838201526020016119a0565b50506000910152565b600081518084526119d981602086016020860161199d565b601f01601f19169290920160200192915050565b8781526001600160a01b038716602082015260e060408201819052600090611a17908301886119c1565b8281036060840152611a2981886119c1565b905085608084015284151560a084015282810360c0840152611a4b81856119c1565b9a9950505050505050505050565b60008060408385031215611a6c57600080fd5b611a75836118aa565b946020939093013593505050565b602081528151602082015260018060a01b0360208301511660408201526000604083015160e06060840152611abc6101008401826119c1565b90506060840151601f1980858403016080860152611ada83836119c1565b9250608086015160a086015260a0860151151560c086015260c08601519150808584030160e086015250611b0e82826119c1565b95945050505050565b634e487b7160e01b600052604160045260246000fd5b60008060408385031215611b4057600080fd5b611b49836118aa565b915060208301356001600160401b0380821115611b6557600080fd5b818501915085601f830112611b7957600080fd5b813581811115611b8b57611b8b611b17565b604051601f8201601f19908116603f01168101908382118183101715611bb357611bb3611b17565b81604052828152886020848701011115611bcc57600080fd5b8260208601602083013760006020848301015280955050505050509250929050565b600060208284031215611c0057600080fd5b6118a3826118aa565b6020808252825182820181905260009190848201906040850190845b81811015611c4157835183529284019291840191600101611c25565b50909695505050505050565b600080600060608486031215611c6257600080fd5b611c6b846118aa565b9250611c796020850161186c565b915061190b604085016118c1565b600080600080600080600060e0888a031215611ca257600080fd5b873563ffffffff81168114611cb657600080fd5b9650611cc4602089016118c1565b9550611cd26040890161186c565b9450611ce06060890161186c565b9350611cee608089016118c1565b9250611cfc60a08901611947565b915060c08801356001600160801b0381168114611d1857600080fd5b8091505092959891949750929550565b600080600060608486031215611d3d57600080fd5b611d46846118aa565b92506118fd6020850161186c565b600181811c90821680611d6857607f821691505b602082108103611d8857634e487b7160e01b600052602260045260246000fd5b50919050565b6001600160a01b0383168152604060208201819052600090611db2908301846119c1565b949350505050565b634e487b7160e01b600052601160045260246000fd5b80820180821115611de357611de3611dba565b92915050565b634e487b7160e01b600052603260045260246000fd5b634e487b7160e01b600052602160045260246000fd5b600060018201611e2757611e27611dba565b5060010190565b60008251611e4081846020870161199d565b9190910192915050565b604081526000611e5d60408301856119c1565b905082151560208301529392505050565b6020815260006118a360208301846119c1565b601f82111561059357600081815260208120601f850160051c81016020861015611ea85750805b601f850160051c820191505b81811015611ec757828155600101611eb4565b505050505050565b81516001600160401b03811115611ee857611ee8611b17565b611efc81611ef68454611d54565b84611e81565b602080601f831160018114611f315760008415611f195750858301515b600019600386901b1c1916600185901b178555611ec7565b600085815260208120601f198616915b82811015611f6057888601518255948401946001909101908401611f41565b5085821015611f7e5787850151600019600388901b60f8161c191681555b5050505050600190811b01905550565b604081526000611fa160408301856119c1565b90508260208301529392505050565b634e487b7160e01b600052605160045260246000fdfe4572726f7220616c20656e7669617220436f726557726974657220616374696f6e436f726557726974657220616374696f6e20656e766961646120657869746f73616d656e7465a26469706673582212202f9fbcb4df4c555fdb4280989260faf43a292e45181ee40f279b646ed2883e2764736f6c63430008140033436f6e747261746f20436f726557726974657220646573706c656761646f20706f723a",
  "devdoc": {
    "author": "Tu Nombre",
    "kind": "dev",
    "methods": {
      "sendAddApiWallet(address,string)": {
        "params": {
          "apiWallet": "direccin de la wallet API",
          "apiWalletName": "nombre de la wallet API"
        }
      },
      "sendFinalizeEvmContract(uint64,uint8,uint64)": {
        "params": {
          "createNonce": "nonce de creacin (uint64)",
          "token": "ID del token (uint64)",
          "variant": "tipo de finalizacin: 1=Create, 2=FirstStorageSlot, 3=CustomStorageSlot"
        }
      },
      "sendLimitOrder(uint32,bool,uint64,uint64,bool,uint8,uint128)": {
        "params": {
          "asset": "ID del activo (uint32)",
          "cloid": "ID de la orden (uint128, 0 para sin cloid)",
          "isBuy": "true para compra, false para venta",
          "limitPx": "precio lmite (uint64, multiplicado por 10^8)",
          "reduceOnly": "true para reducir solo",
          "sz": "tamao de la orden (uint64, multiplicado por 10^8)",
          "tif": "tipo de orden: 1=Alo, 2=Gtc, 3=Ioc"
        }
      },
      "sendSpotSend(address,uint64,uint64)": {
        "params": {
          "amount": "cantidad en wei (uint64)",
          "destination": "direccin de destino",
          "token": "ID del token (uint64)"
        }
      },
      "sendStakingDeposit(uint64)": {
        "params": {
          "amount": "cantidad en wei (uint64)"
        }
      },
      "sendStakingWithdraw(uint64)": {
        "params": {
          "amount": "cantidad en wei (uint64)"
        }
      },
      "sendTokenDelegate(address,uint64,bool)": {
        "params": {
          "amount": "cantidad en wei (uint64)",
          "isUndelegate": "true para des-delegar",
          "validator": "direccin del validador"
        }
      },
      "sendUsdClassTransfer(uint64,bool)": {
        "params": {
          "ntl": "cantidad notional (uint64)",
          "toPerp": "true para transferir a perp"
        }
      },
      "sendVaultTransfer(address,bool,uint64)": {
        "params": {
          "isDeposit": "true para depsito, false para retiro",
          "usd": "cantidad en USD (uint64)",
          "vault": "direccin del vault"
        }
      }
    },
    "version": 1
  },
  "userdoc": {
    "kind": "user",
    "methods": {
      "sendAddApiWallet(address,string)": {
        "notice": "Agrega una wallet API"
      },
      "sendFinalizeEvmContract(uint64,uint8,uint64)": {
        "notice": "Finaliza un contrato EVM"
      },
      "sendLimitOrder(uint32,bool,uint64,uint64,bool,uint8,uint128)": {
        "notice": "Enva una orden lmite a HyperCore"
      },
      "sendSpotSend(address,uint64,uint64)": {
        "notice": "Enva tokens spot"
      },
      "sendStakingDeposit(uint64)": {
        "notice": "Deposita en staking"
      },
      "sendStakingWithdraw(uint64)": {
        "notice": "Retira de staking"
      },
      "sendTokenDelegate(address,uint64,bool)": {
        "notice": "Delega tokens a un validador"
      },
      "sendUsdClassTransfer(uint64,bool)": {
        "notice": "Transfiere USD class"
      },
      "sendVaultTransfer(address,bool,uint64)": {
        "notice": "Transfiere fondos desde/hacia un vault"
      },
      "testLimitOrder()": {
        "notice": "Funcin de prueba para enviar una orden lmite de ejemplo"
      },
      "testTokenDelegate()": {
        "notice": "Funcin de prueba para delegar tokens"
      },
      "testVaultTransfer()": {
        "notice": "Funcin de prueba para enviar una transferencia de vault"
      },
      "withdraw()": {
        "notice": "Funcin para retirar HYPE (solo propietario)"
      }
    },
    "notice": "Contrato CoreWriter para hyperEVM testnet Implementa las funcionalidades reales de CoreWriter segn la documentacin oficial",
    "version": 1
  },
  "storageLayout": {
    "storage": [
      {
        "astId": 8,
        "contract": "contracts/YourContract.sol:YourContract",
        "label": "actionCounter",
        "offset": 0,
        "slot": "0",
        "type": "t_uint256"
      },
      {
        "astId": 13,
        "contract": "contracts/YourContract.sol:YourContract",
        "label": "actions",
        "offset": 0,
        "slot": "1",
        "type": "t_mapping(t_uint256,t_struct(Action)36_storage)"
      },
      {
        "astId": 18,
        "contract": "contracts/YourContract.sol:YourContract",
        "label": "userActions",
        "offset": 0,
        "slot": "2",
        "type": "t_mapping(t_address,t_array(t_uint256)dyn_storage)"
      }
    ],
    "types": {
      "t_address": {
        "encoding": "inplace",
        "label": "address",
        "numberOfBytes": "20"
      },
      "t_array(t_uint256)dyn_storage": {
        "base": "t_uint256",
        "encoding": "dynamic_array",
        "label": "uint256[]",
        "numberOfBytes": "32"
      },
      "t_bool": {
        "encoding": "inplace",
        "label": "bool",
        "numberOfBytes": "1"
      },
      "t_bytes_storage": {
        "encoding": "bytes",
        "label": "bytes",
        "numberOfBytes": "32"
      },
      "t_mapping(t_address,t_array(t_uint256)dyn_storage)": {
        "encoding": "mapping",
        "key": "t_address",
        "label": "mapping(address => uint256[])",
        "numberOfBytes": "32",
        "value": "t_array(t_uint256)dyn_storage"
      },
      "t_mapping(t_uint256,t_struct(Action)36_storage)": {
        "encoding": "mapping",
        "key": "t_uint256",
        "label": "mapping(uint256 => struct YourContract.Action)",
        "numberOfBytes": "32",
        "value": "t_struct(Action)36_storage"
      },
      "t_string_storage": {
        "encoding": "bytes",
        "label": "string",
        "numberOfBytes": "32"
      },
      "t_struct(Action)36_storage": {
        "encoding": "inplace",
        "label": "struct YourContract.Action",
        "members": [
          {
            "astId": 23,
            "contract": "contracts/YourContract.sol:YourContract",
            "label": "id",
            "offset": 0,
            "slot": "0",
            "type": "t_uint256"
          },
          {
            "astId": 25,
            "contract": "contracts/YourContract.sol:YourContract",
            "label": "creator",
            "offset": 0,
            "slot": "1",
            "type": "t_address"
          },
          {
            "astId": 27,
            "contract": "contracts/YourContract.sol:YourContract",
            "label": "actionType",
            "offset": 0,
            "slot": "2",
            "type": "t_string_storage"
          },
          {
            "astId": 29,
            "contract": "contracts/YourContract.sol:YourContract",
            "label": "data",
            "offset": 0,
            "slot": "3",
            "type": "t_bytes_storage"
          },
          {
            "astId": 31,
            "contract": "contracts/YourContract.sol:YourContract",
            "label": "timestamp",
            "offset": 0,
            "slot": "4",
            "type": "t_uint256"
          },
          {
            "astId": 33,
            "contract": "contracts/YourContract.sol:YourContract",
            "label": "executed",
            "offset": 0,
            "slot": "5",
            "type": "t_bool"
          },
          {
            "astId": 35,
            "contract": "contracts/YourContract.sol:YourContract",
            "label": "result",
            "offset": 0,
            "slot": "6",
            "type": "t_string_storage"
          }
        ],
        "numberOfBytes": "224"
      },
      "t_uint256": {
        "encoding": "inplace",
        "label": "uint256",
        "numberOfBytes": "32"
      }
    }
  }
}